:020000040000FA
:020000000528D1
:0800080043280130F50001302E
:10001000F6000030F70083160313113086008316B4
:10002000031300308800831203130030880083120A
:10003000031398308B008316031381138312031369
:100040007508F707F71E28280030F70088002C28CD
:1000500083120313770888002F2064001E28760877
:10006000F4000030043EF40B3228F200C830F100F6
:10007000FA30F00000000000F00B3A28F10B3828AD
:10008000F20B36280800831203138B184E280B1C22
:10009000672883120313061A592863287508013E3E
:1000A000F500063C83120313031D63280130F5009D
:1000B00063287608013EF600063C83120313031DF5
:1000C00063280130F600831203130B108B10090014
:043000000034003464
:02400E00313748
:00000001FF
